{
  "abi": [
    {
      "type": "function",
      "name": "borrowerConsents",
      "inputs": [
        {
          "name": "",
          "type": "address",
          "internalType": "address"
        },
        {
          "name": "",
          "type": "uint256",
          "internalType": "uint256"
        }
      ],
      "outputs": [
        {
          "name": "",
          "type": "bytes32",
          "internalType": "bytes32"
        }
      ],
      "stateMutability": "view"
    },
    {
      "type": "function",
      "name": "checkAuthorization",
      "inputs": [
        {
          "name": "borrower",
          "type": "address",
          "internalType": "address"
        },
        {
          "name": "lender",
          "type": "address",
          "internalType": "address"
        },
        {
          "name": "scope",
          "type": "bytes32",
          "internalType": "bytes32"
        }
      ],
      "outputs": [
        {
          "name": "",
          "type": "bool",
          "internalType": "bool"
        }
      ],
      "stateMutability": "nonpayable"
    },
    {
      "type": "function",
      "name": "consents",
      "inputs": [
        {
          "name": "",
          "type": "bytes32",
          "internalType": "bytes32"
        }
      ],
      "outputs": [
        {
          "name": "borrower",
          "type": "address",
          "internalType": "address"
        },
        {
          "name": "lender",
          "type": "address",
          "internalType": "address"
        },
        {
          "name": "scope",
          "type": "bytes32",
          "internalType": "bytes32"
        },
        {
          "name": "expiryTime",
          "type": "uint256",
          "internalType": "uint256"
        },
        {
          "name": "revoked",
          "type": "bool",
          "internalType": "bool"
        }
      ],
      "stateMutability": "view"
    },
    {
      "type": "function",
      "name": "getBorrowerConsents",
      "inputs": [
        {
          "name": "borrower",
          "type": "address",
          "internalType": "address"
        }
      ],
      "outputs": [
        {
          "name": "",
          "type": "bytes32[]",
          "internalType": "bytes32[]"
        }
      ],
      "stateMutability": "view"
    },
    {
      "type": "function",
      "name": "getConsentDetails",
      "inputs": [
        {
          "name": "consentId",
          "type": "bytes32",
          "internalType": "bytes32"
        }
      ],
      "outputs": [
        {
          "name": "borrower",
          "type": "address",
          "internalType": "address"
        },
        {
          "name": "lender",
          "type": "address",
          "internalType": "address"
        },
        {
          "name": "scope",
          "type": "bytes32",
          "internalType": "bytes32"
        },
        {
          "name": "expiryTime",
          "type": "uint256",
          "internalType": "uint256"
        },
        {
          "name": "revoked",
          "type": "bool",
          "internalType": "bool"
        }
      ],
      "stateMutability": "view"
    },
    {
      "type": "function",
      "name": "grantConsent",
      "inputs": [
        {
          "name": "lender",
          "type": "address",
          "internalType": "address"
        },
        {
          "name": "scope",
          "type": "bytes32",
          "internalType": "bytes32"
        },
        {
          "name": "durationSeconds",
          "type": "uint256",
          "internalType": "uint256"
        }
      ],
      "outputs": [
        {
          "name": "consentId",
          "type": "bytes32",
          "internalType": "bytes32"
        }
      ],
      "stateMutability": "nonpayable"
    },
    {
      "type": "function",
      "name": "isConsentValid",
      "inputs": [
        {
          "name": "consentId",
          "type": "bytes32",
          "internalType": "bytes32"
        }
      ],
      "outputs": [
        {
          "name": "",
          "type": "bool",
          "internalType": "bool"
        }
      ],
      "stateMutability": "view"
    },
    {
      "type": "function",
      "name": "revokeConsent",
      "inputs": [
        {
          "name": "consentId",
          "type": "bytes32",
          "internalType": "bytes32"
        }
      ],
      "outputs": [],
      "stateMutability": "nonpayable"
    },
    {
      "type": "event",
      "name": "ConsentGranted",
      "inputs": [
        {
          "name": "consentId",
          "type": "bytes32",
          "indexed": true,
          "internalType": "bytes32"
        },
        {
          "name": "borrower",
          "type": "address",
          "indexed": true,
          "internalType": "address"
        },
        {
          "name": "lender",
          "type": "address",
          "indexed": true,
          "internalType": "address"
        },
        {
          "name": "scope",
          "type": "bytes32",
          "indexed": false,
          "internalType": "bytes32"
        },
        {
          "name": "expiryTime",
          "type": "uint256",
          "indexed": false,
          "internalType": "uint256"
        }
      ],
      "anonymous": false
    },
    {
      "type": "event",
      "name": "ConsentQueried",
      "inputs": [
        {
          "name": "consentId",
          "type": "bytes32",
          "indexed": true,
          "internalType": "bytes32"
        },
        {
          "name": "querier",
          "type": "address",
          "indexed": true,
          "internalType": "address"
        },
        {
          "name": "authorized",
          "type": "bool",
          "indexed": false,
          "internalType": "bool"
        }
      ],
      "anonymous": false
    },
    {
      "type": "event",
      "name": "ConsentRevoked",
      "inputs": [
        {
          "name": "consentId",
          "type": "bytes32",
          "indexed": true,
          "internalType": "bytes32"
        }
      ],
      "anonymous": false
    },
    {
      "type": "error",
      "name": "ConsentAlreadyRevoked",
      "inputs": []
    },
    {
      "type": "error",
      "name": "ConsentExpired",
      "inputs": []
    },
    {
      "type": "error",
      "name": "ConsentNotFound",
      "inputs": []
    },
    {
      "type": "error",
      "name": "UnauthorizedRevocation",
      "inputs": []
    }
  ],
  "bytecode": {
    "object": "0x6080604052348015600e575f5ffd5b5061121a8061001c5f395ff3fe608060405234801561000f575f5ffd5b5060043610610086575f3560e01c8063b46e513f11610059578063b46e513f1461013e578063c31257751461016e578063c87266261461019e578063e3fe22d4146101ce57610086565b806307a0315d1461008a57806310683f1c146100a657806318737dd3146100d6578063b3d8ccbd1461010a575b5f5ffd5b6100a4600480360381019061009f9190610ba3565b6101fe565b005b6100c060048036038101906100bb9190610c5b565b6103b5565b6040516100cd9190610cba565b60405180910390f35b6100f060048036038101906100eb9190610ba3565b6106e0565b604051610101959493929190610d0b565b60405180910390f35b610124600480360381019061011f9190610ba3565b61076f565b604051610135959493929190610d0b565b60405180910390f35b61015860048036038101906101539190610d5c565b6107eb565b6040516101659190610cba565b60405180910390f35b61018860048036038101906101839190610d9a565b610815565b6040516101959190610dea565b60405180910390f35b6101b860048036038101906101b39190610ba3565b610a28565b6040516101c59190610dea565b60405180910390f35b6101e860048036038101906101e39190610e03565b610ada565b6040516101f59190610ee5565b60405180910390f35b5f60015f8381526020019081526020015f2090505f73ffffffffffffffffffffffffffffffffffffffff16815f015f9054906101000a900473ffffffffffffffffffffffffffffffffffffffff1673ffffffffffffffffffffffffffffffffffffffff1603610299576040517f42934ecc00000000000000000000000000000000000000000000000000000000815260040160405180910390fd5b3373ffffffffffffffffffffffffffffffffffffffff16815f015f9054906101000a900473ffffffffffffffffffffffffffffffffffffffff1673ffffffffffffffffffffffffffffffffffffffff1614610320576040517f7f57bea800000000000000000000000000000000000000000000000000000000815260040160405180910390fd5b806004015f9054906101000a900460ff1615610368576040517f3b3f1ef500000000000000000000000000000000000000000000000000000000815260040160405180910390fd5b6001816004015f6101000a81548160ff021916908315150217905550817f1ea893b704d41fc8ac0534da58fcbe5ecb13345d1de49869de886dc273aadd4860405160405180910390a25050565b5f5f73ffffffffffffffffffffffffffffffffffffffff168473ffffffffffffffffffffffffffffffffffffffff1603610424576040517f08c379a000000000000000000000000000000000000000000000000000000000815260040161041b90610f5f565b60405180910390fd5b5f5f1b8303610468576040517f08c379a000000000000000000000000000000000000000000000000000000000815260040161045f90610fc7565b60405180910390fd5b5f82116104aa576040517f08c379a00000000000000000000000000000000000000000000000000000000081526004016104a19061102f565b60405180910390fd5b5f82426104b7919061107a565b905033858542436040516020016104d2959493929190611132565b6040516020818303038152906040528051906020012091506040518060a001604052803373ffffffffffffffffffffffffffffffffffffffff1681526020018673ffffffffffffffffffffffffffffffffffffffff1681526020018581526020018281526020015f151581525060015f8481526020019081526020015f205f820151815f015f6101000a81548173ffffffffffffffffffffffffffffffffffffffff021916908373ffffffffffffffffffffffffffffffffffffffff1602179055506020820151816001015f6101000a81548173ffffffffffffffffffffffffffffffffffffffff021916908373ffffffffffffffffffffffffffffffffffffffff16021790555060408201518160020155606082015181600301556080820151816004015f6101000a81548160ff0219169083151502179055509050505f5f3373ffffffffffffffffffffffffffffffffffffffff1673ffffffffffffffffffffffffffffffffffffffff1681526020019081526020015f2082908060018154018082558091505060019003905f5260205f20015f90919091909150558473ffffffffffffffffffffffffffffffffffffffff163373ffffffffffffffffffffffffffffffffffffffff16837f26df749d620c08f56f45349ae72b466a09395e904ab12cf462ac06f24732997e87856040516106d0929190611190565b60405180910390a4509392505050565b5f5f5f5f5f5f60015f8881526020019081526020015f209050805f015f9054906101000a900473ffffffffffffffffffffffffffffffffffffffff16816001015f9054906101000a900473ffffffffffffffffffffffffffffffffffffffff1682600201548360030154846004015f9054906101000a900460ff16955095509550955095505091939590929450565b6001602052805f5260405f205f91509050805f015f9054906101000a900473ffffffffffffffffffffffffffffffffffffffff1690806001015f9054906101000a900473ffffffffffffffffffffffffffffffffffffffff1690806002015490806003015490806004015f9054906101000a900460ff16905085565b5f602052815f5260405f208181548110610803575f80fd5b905f5260205f20015f91509150505481565b5f5f5f90505b5f5f8673ffffffffffffffffffffffffffffffffffffffff1673ffffffffffffffffffffffffffffffffffffffff1681526020019081526020015f20805490508110156109cb575f5f5f8773ffffffffffffffffffffffffffffffffffffffff1673ffffffffffffffffffffffffffffffffffffffff1681526020019081526020015f2082815481106108b1576108b06111b7565b5b905f5260205f20015490505f60015f8381526020019081526020015f2090508573ffffffffffffffffffffffffffffffffffffffff16816001015f9054906101000a900473ffffffffffffffffffffffffffffffffffffffff1673ffffffffffffffffffffffffffffffffffffffff161480156109315750848160020154145b801561094b5750806004015f9054906101000a900460ff16155b801561095b575080600301544211155b156109bc578573ffffffffffffffffffffffffffffffffffffffff16827f0e2aa5556a454e629029b975f197e594d2aadea355cdd0a91cad95a3df69baca60016040516109a89190610dea565b60405180910390a360019350505050610a21565b5050808060010191505061081b565b508273ffffffffffffffffffffffffffffffffffffffff165f5f1b7f0e2aa5556a454e629029b975f197e594d2aadea355cdd0a91cad95a3df69baca5f604051610a159190610dea565b60405180910390a35f90505b9392505050565b5f5f60015f8481526020019081526020015f2090505f73ffffffffffffffffffffffffffffffffffffffff16815f015f9054906101000a900473ffffffffffffffffffffffffffffffffffffffff1673ffffffffffffffffffffffffffffffffffffffff1603610a9b575f915050610ad5565b806004015f9054906101000a900460ff1615610aba575f915050610ad5565b8060030154421115610acf575f915050610ad5565b60019150505b919050565b60605f5f8373ffffffffffffffffffffffffffffffffffffffff1673ffffffffffffffffffffffffffffffffffffffff1681526020019081526020015f20805480602002602001604051908101604052809291908181526020018280548015610b6057602002820191905f5260205f20905b815481526020019060010190808311610b4c575b50505050509050919050565b5f5ffd5b5f819050919050565b610b8281610b70565b8114610b8c575f5ffd5b50565b5f81359050610b9d81610b79565b92915050565b5f60208284031215610bb857610bb7610b6c565b5b5f610bc584828501610b8f565b91505092915050565b5f73ffffffffffffffffffffffffffffffffffffffff82169050919050565b5f610bf782610bce565b9050919050565b610c0781610bed565b8114610c11575f5ffd5b50565b5f81359050610c2281610bfe565b92915050565b5f819050919050565b610c3a81610c28565b8114610c44575f5ffd5b50565b5f81359050610c5581610c31565b92915050565b5f5f5f60608486031215610c7257610c71610b6c565b5b5f610c7f86828701610c14565b9350506020610c9086828701610b8f565b9250506040610ca186828701610c47565b9150509250925092565b610cb481610b70565b82525050565b5f602082019050610ccd5f830184610cab565b92915050565b610cdc81610bed565b82525050565b610ceb81610c28565b82525050565b5f8115159050919050565b610d0581610cf1565b82525050565b5f60a082019050610d1e5f830188610cd3565b610d2b6020830187610cd3565b610d386040830186610cab565b610d456060830185610ce2565b610d526080830184610cfc565b9695505050505050565b5f5f60408385031215610d7257610d71610b6c565b5b5f610d7f85828601610c14565b9250506020610d9085828601610c47565b9150509250929050565b5f5f5f60608486031215610db157610db0610b6c565b5b5f610dbe86828701610c14565b9350506020610dcf86828701610c14565b9250506040610de086828701610b8f565b9150509250925092565b5f602082019050610dfd5f830184610cfc565b92915050565b5f60208284031215610e1857610e17610b6c565b5b5f610e2584828501610c14565b91505092915050565b5f81519050919050565b5f82825260208201905092915050565b5f819050602082019050919050565b610e6081610b70565b82525050565b5f610e718383610e57565b60208301905092915050565b5f602082019050919050565b5f610e9382610e2e565b610e9d8185610e38565b9350610ea883610e48565b805f5b83811015610ed8578151610ebf8882610e66565b9750610eca83610e7d565b925050600181019050610eab565b5085935050505092915050565b5f6020820190508181035f830152610efd8184610e89565b905092915050565b5f82825260208201905092915050565b7f496e76616c6964206c656e6465722061646472657373000000000000000000005f82015250565b5f610f49601683610f05565b9150610f5482610f15565b602082019050919050565b5f6020820190508181035f830152610f7681610f3d565b9050919050565b7f496e76616c69642073636f7065000000000000000000000000000000000000005f82015250565b5f610fb1600d83610f05565b9150610fbc82610f7d565b602082019050919050565b5f6020820190508181035f830152610fde81610fa5565b9050919050565b7f4475726174696f6e206d75737420626520706f736974697665000000000000005f82015250565b5f611019601983610f05565b915061102482610fe5565b602082019050919050565b5f6020820190508181035f8301526110468161100d565b9050919050565b7f4e487b71000000000000000000000000000000000000000000000000000000005f52601160045260245ffd5b5f61108482610c28565b915061108f83610c28565b92508282019050808211156110a7576110a661104d565b5b92915050565b5f8160601b9050919050565b5f6110c3826110ad565b9050919050565b5f6110d4826110b9565b9050919050565b6110ec6110e782610bed565b6110ca565b82525050565b5f819050919050565b61110c61110782610b70565b6110f2565b82525050565b5f819050919050565b61112c61112782610c28565b611112565b82525050565b5f61113d82886110db565b60148201915061114d82876110db565b60148201915061115d82866110fb565b60208201915061116d828561111b565b60208201915061117d828461111b565b6020820191508190509695505050505050565b5f6040820190506111a35f830185610cab565b6111b06020830184610ce2565b9392505050565b7f4e487b71000000000000000000000000000000000000000000000000000000005f52603260045260245ffdfea264697066735822122054cba3a09cb4cc4f2a77f251e2f49a28e54cc199af5f5466c2c679feedb73cc764736f6c634300081e0033",
    "linkReferences": {}
  },
  "methodIdentifiers": {
    "borrowerConsents(address,uint256)": "b46e513f",
    "checkAuthorization(address,address,bytes32)": "c3125775",
    "consents(bytes32)": "b3d8ccbd",
    "getBorrowerConsents(address)": "e3fe22d4",
    "getConsentDetails(bytes32)": "18737dd3",
    "grantConsent(address,bytes32,uint256)": "10683f1c",
    "isConsentValid(bytes32)": "c8726626",
    "revokeAllConsentsbytes32)": "07a0315d"
  },
  "id": 1
}