{"abi":[{"type":"constructor","inputs":[],"stateMutability":"nonpayable"},{"type":"function","name":"accessorHistory","inputs":[{"name":"","type":"address","internalType":"address"},{"name":"","type":"uint256","internalType":"uint256"}],"outputs":[{"name":"","type":"uint256","internalType":"uint256"}],"stateMutability":"view"},{"type":"function","name":"admin","inputs":[],"outputs":[{"name":"","type":"address","internalType":"address"}],"stateMutability":"view"},{"type":"function","name":"authorizeLogger","inputs":[{"name":"logger","type":"address","internalType":"address"}],"outputs":[],"stateMutability":"nonpayable"},{"type":"function","name":"authorizedLoggers","inputs":[{"name":"","type":"address","internalType":"address"}],"outputs":[{"name":"","type":"bool","internalType":"bool"}],"stateMutability":"view"},{"type":"function","name":"getAccessHistory","inputs":[{"name":"user","type":"address","internalType":"address"}],"outputs":[{"name":"","type":"uint256[]","internalType":"uint256[]"}],"stateMutability":"view"},{"type":"function","name":"getAccessorHistory","inputs":[{"name":"accessor","type":"address","internalType":"address"}],"outputs":[{"name":"","type":"uint256[]","internalType":"uint256[]"}],"stateMutability":"view"},{"type":"function","name":"getAuditEntries","inputs":[{"name":"startId","type":"uint256","internalType":"uint256"},{"name":"count","type":"uint256","internalType":"uint256"}],"outputs":[{"name":"","type":"tuple[]","internalType":"struct AuditLog.AuditEntry[]","components":[{"name":"accessor","type":"address","internalType":"address"},{"name":"subject","type":"address","internalType":"address"},{"name":"scope","type":"bytes32","internalType":"bytes32"},{"name":"timestamp","type":"uint256","internalType":"uint256"},{"name":"action","type":"string","internalType":"string"},{"name":"success","type":"bool","internalType":"bool"}]}],"stateMutability":"view"},{"type":"function","name":"getAuditEntry","inputs":[{"name":"entryId","type":"uint256","internalType":"uint256"}],"outputs":[{"name":"","type":"tuple","internalType":"struct AuditLog.AuditEntry","components":[{"name":"accessor","type":"address","internalType":"address"},{"name":"subject","type":"address","internalType":"address"},{"name":"scope","type":"bytes32","internalType":"bytes32"},{"name":"timestamp","type":"uint256","internalType":"uint256"},{"name":"action","type":"string","internalType":"string"},{"name":"success","type":"bool","internalType":"bool"}]}],"stateMutability":"view"},{"type":"function","name":"getLogsCount","inputs":[],"outputs":[{"name":"","type":"uint256","internalType":"uint256"}],"stateMutability":"view"},{"type":"function","name":"getRecentLogs","inputs":[{"name":"count","type":"uint256","internalType":"uint256"}],"outputs":[{"name":"","type":"tuple[]","internalType":"struct AuditLog.AuditEntry[]","components":[{"name":"accessor","type":"address","internalType":"address"},{"name":"subject","type":"address","internalType":"address"},{"name":"scope","type":"bytes32","internalType":"bytes32"},{"name":"timestamp","type":"uint256","internalType":"uint256"},{"name":"action","type":"string","internalType":"string"},{"name":"success","type":"bool","internalType":"bool"}]}],"stateMutability":"view"},{"type":"function","name":"isAuthorizedLogger","inputs":[{"name":"logger","type":"address","internalType":"address"}],"outputs":[{"name":"","type":"bool","internalType":"bool"}],"stateMutability":"view"},{"type":"function","name":"logAccess","inputs":[{"name":"accessor","type":"address","internalType":"address"},{"name":"subject","type":"address","internalType":"address"},{"name":"scope","type":"bytes32","internalType":"bytes32"},{"name":"action","type":"string","internalType":"string"},{"name":"success","type":"bool","internalType":"bool"}],"outputs":[],"stateMutability":"nonpayable"},{"type":"function","name":"logs","inputs":[{"name":"","type":"uint256","internalType":"uint256"}],"outputs":[{"name":"accessor","type":"address","internalType":"address"},{"name":"subject","type":"address","internalType":"address"},{"name":"scope","type":"bytes32","internalType":"bytes32"},{"name":"timestamp","type":"uint256","internalType":"uint256"},{"name":"action","type":"string","internalType":"string"},{"name":"success","type":"bool","internalType":"bool"}],"stateMutability":"view"},{"type":"function","name":"revokeLogger","inputs":[{"name":"logger","type":"address","internalType":"address"}],"outputs":[],"stateMutability":"nonpayable"},{"type":"function","name":"userAccessHistory","inputs":[{"name":"","type":"address","internalType":"address"},{"name":"","type":"uint256","internalType":"uint256"}],"outputs":[{"name":"","type":"uint256","internalType":"uint256"}],"stateMutability":"view"},{"type":"event","name":"AccessLogged","inputs":[{"name":"entryId","type":"uint256","indexed":true,"internalType":"uint256"},{"name":"accessor","type":"address","indexed":true,"internalType":"address"},{"name":"subject","type":"address","indexed":true,"internalType":"address"},{"name":"scope","type":"bytes32","indexed":false,"internalType":"bytes32"},{"name":"action","type":"string","indexed":false,"internalType":"string"},{"name":"success","type":"bool","indexed":false,"internalType":"bool"},{"name":"timestamp","type":"uint256","indexed":false,"internalType":"uint256"}],"anonymous":false},{"type":"event","name":"LoggerAuthorized","inputs":[{"name":"logger","type":"address","indexed":true,"internalType":"address"}],"anonymous":false},{"type":"event","name":"LoggerRevoked","inputs":[{"name":"logger","type":"address","indexed":true,"internalType":"address"}],"anonymous":false},{"type":"error","name":"InvalidEntryId","inputs":[]},{"type":"error","name":"OnlyAdmin","inputs":[]},{"type":"error","name":"UnauthorizedLogger","inputs":[]}],"bytecode":{"object":"0x6080604052348015600e575f5ffd5b503360045f6101000a81548173ffffffffffffffffffffffffffffffffffffffff021916908373ffffffffffffffffffffffffffffffffffffffff160217905550600160035f3373ffffffffffffffffffffffffffffffffffffffff1673ffffffffffffffffffffffffffffffffffffffff1681526020019081526020015f205f6101000a81548160ff0219169083151502179055506120b1806100b15f395ff3fe608060405234801561000f575f5ffd5b50600436106100f3575f3560e01c8063b16b1e2d11610095578063e52e64f911610064578063e52e64f9146102b9578063e79899bd146102e9578063f851a4401461031e578063fcabb0fd1461033c576100f3565b8063b16b1e2d14610233578063bcfa3f301461024f578063cc9e300f1461026b578063e1437f0f14610289576100f3565b806371f36543116100d157806371f36543146101875780638003124f146101b7578063a61ecc62146101d3578063a929718614610203576100f3565b8063154d69cb146100f75780632801e43a1461012757806365b33fd114610157575b5f5ffd5b610111600480360381019061010c919061148b565b61036c565b60405161011e91906114d8565b60405180910390f35b610141600480360381019061013c91906114f1565b610397565b60405161014e9190611536565b60405180910390f35b610171600480360381019061016c919061154f565b6103b4565b60405161017e9190611783565b60405180910390f35b6101a1600480360381019061019c919061148b565b610666565b6040516101ae91906114d8565b60405180910390f35b6101d160048036038101906101cc9190611858565b610691565b005b6101ed60048036038101906101e891906118ee565b6109f1565b6040516101fa919061199f565b60405180910390f35b61021d600480360381019061021891906114f1565b610bce565b60405161022a9190611a67565b60405180910390f35b61024d600480360381019061024891906114f1565b610c61565b005b610269600480360381019061026491906114f1565b610d81565b005b610273610f10565b60405161028091906114d8565b60405180910390f35b6102a3600480360381019061029e91906114f1565b610f1b565b6040516102b09190611536565b60405180910390f35b6102d360048036038101906102ce91906118ee565b610f6d565b6040516102e09190611783565b60405180910390f35b61030360048036038101906102fe91906118ee565b6111c9565b60405161031596959493929190611aed565b60405180910390f35b6103266112df565b6040516103339190611b53565b60405180910390f35b610356600480360381019061035191906114f1565b611304565b6040516103639190611a67565b60405180910390f35b6002602052815f5260405f208181548110610385575f80fd5b905f5260205f20015f91509150505481565b6003602052805f5260405f205f915054906101000a900460ff1681565b60605f8054905083106103fc576040517f08c379a00000000000000000000000000000000000000000000000000000000081526004016103f390611bb6565b60405180910390fd5b5f82846104099190611c01565b90505f8054905081111561041f575f8054905090505b5f848261042c9190611c34565b90505f8167ffffffffffffffff81111561044957610448611c67565b5b60405190808252806020026020018201604052801561048257816020015b61046f611397565b8152602001906001900390816104675790505b5090505f5f90505b82811015610659575f818861049f9190611c01565b815481106104b0576104af611c94565b5b905f5260205f2090600602016040518060c00160405290815f82015f9054906101000a900473ffffffffffffffffffffffffffffffffffffffff1673ffffffffffffffffffffffffffffffffffffffff1673ffffffffffffffffffffffffffffffffffffffff168152602001600182015f9054906101000a900473ffffffffffffffffffffffffffffffffffffffff1673ffffffffffffffffffffffffffffffffffffffff1673ffffffffffffffffffffffffffffffffffffffff168152602001600282015481526020016003820154815260200160048201805461059490611cee565b80601f01602080910402602001604051908101604052809291908181526020018280546105c090611cee565b801561060b5780601f106105e25761010080835404028352916020019161060b565b820191905f5260205f20905b8154815290600101906020018083116105ee57829003601f168201915b50505050508152602001600582015f9054906101000a900460ff16151515158152505082828151811061064157610640611c94565b5b6020026020010181905250808060010191505061048a565b5080935050505092915050565b6001602052815f5260405f20818154811061067f575f80fd5b905f5260205f20015f91509150505481565b60035f3373ffffffffffffffffffffffffffffffffffffffff1673ffffffffffffffffffffffffffffffffffffffff1681526020019081526020015f205f9054906101000a900460ff16610711576040517f4285a8ec00000000000000000000000000000000000000000000000000000000815260040160405180910390fd5b5f5f8054905090505f6040518060c001604052808973ffffffffffffffffffffffffffffffffffffffff1681526020018873ffffffffffffffffffffffffffffffffffffffff16815260200187815260200142815260200186868080601f0160208091040260200160405190810160405280939291908181526020018383808284375f81840152601f19601f82011690508083019250505050505050815260200184151581525090505f81908060018154018082558091505060019003905f5260205f2090600602015f909190919091505f820151815f015f6101000a81548173ffffffffffffffffffffffffffffffffffffffff021916908373ffffffffffffffffffffffffffffffffffffffff1602179055506020820151816001015f6101000a81548173ffffffffffffffffffffffffffffffffffffffff021916908373ffffffffffffffffffffffffffffffffffffffff160217905550604082015181600201556060820151816003015560808201518160040190816108959190611ebe565b5060a0820151816005015f6101000a81548160ff021916908315150217905550505060015f8873ffffffffffffffffffffffffffffffffffffffff1673ffffffffffffffffffffffffffffffffffffffff1681526020019081526020015f2082908060018154018082558091505060019003905f5260205f20015f909190919091505560025f8973ffffffffffffffffffffffffffffffffffffffff1673ffffffffffffffffffffffffffffffffffffffff1681526020019081526020015f2082908060018154018082558091505060019003905f5260205f20015f90919091909150558673ffffffffffffffffffffffffffffffffffffffff168873ffffffffffffffffffffffffffffffffffffffff16837f5b3b9622aca59687a40a37d1bef235a78e7f23ee9f27c087e1c88cdbc191d8cf89898989426040516109df959493929190611fc7565b60405180910390a45050505050505050565b6109f9611397565b5f805490508210610a36576040517f549b6a4c00000000000000000000000000000000000000000000000000000000815260040160405180910390fd5b5f8281548110610a4957610a48611c94565b5b905f5260205f2090600602016040518060c00160405290815f82015f9054906101000a900473ffffffffffffffffffffffffffffffffffffffff1673ffffffffffffffffffffffffffffffffffffffff1673ffffffffffffffffffffffffffffffffffffffff168152602001600182015f9054906101000a900473ffffffffffffffffffffffffffffffffffffffff1673ffffffffffffffffffffffffffffffffffffffff1673ffffffffffffffffffffffffffffffffffffffff1681526020016002820154815260200160038201548152602001600482018054610b2d90611cee565b80601f0160208091040260200160405190810160405280929190818152602001828054610b5990611cee565b8015610ba45780601f10610b7b57610100808354040283529160200191610ba4565b820191905f5260205f20905b815481529060010190602001808311610b8757829003601f168201915b50505050508152602001600582015f9054906101000a900460ff1615151515815250509050919050565b606060025f8373ffffffffffffffffffffffffffffffffffffffff1673ffffffffffffffffffffffffffffffffffffffff1681526020019081526020015f20805480602002602001604051908101604052809291908181526020018280548015610c5557602002820191905f5260205f20905b815481526020019060010190808311610c41575b50505050509050919050565b60045f9054906101000a900473ffffffffffffffffffffffffffffffffffffffff1673ffffffffffffffffffffffffffffffffffffffff163373ffffffffffffffffffffffffffffffffffffffff1614610ce7576040517f4755657900000000000000000000000000000000000000000000000000000000815260040160405180910390fd5b5f60035f8373ffffffffffffffffffffffffffffffffffffffff1673ffffffffffffffffffffffffffffffffffffffff1681526020019081526020015f205f6101000a81548160ff0219169083151502179055508073ffffffffffffffffffffffffffffffffffffffff167f902ce9ce11374af7f9b74f6ab3d4111f8652bb37e76c71d696e931210f64f49d60405160405180910390a250565b60045f9054906101000a900473ffffffffffffffffffffffffffffffffffffffff1673ffffffffffffffffffffffffffffffffffffffff163373ffffffffffffffffffffffffffffffffffffffff1614610e07576040517f4755657900000000000000000000000000000000000000000000000000000000815260040160405180910390fd5b5f73ffffffffffffffffffffffffffffffffffffffff168173ffffffffffffffffffffffffffffffffffffffff1603610e75576040517f08c379a0000000000000000000000000000000000000000000000000000000008152600401610e6c9061205d565b60405180910390fd5b600160035f8373ffffffffffffffffffffffffffffffffffffffff1673ffffffffffffffffffffffffffffffffffffffff1681526020019081526020015f205f6101000a81548160ff0219169083151502179055508073ffffffffffffffffffffffffffffffffffffffff167f9f2bbcfd0b2e3242c6982755a3baeb59187a22138a75ded102a5c9cb0ec727c760405160405180910390a250565b5f5f80549050905090565b5f60035f8373ffffffffffffffffffffffffffffffffffffffff1673ffffffffffffffffffffffffffffffffffffffff1681526020019081526020015f205f9054906101000a900460ff169050919050565b60605f5f80549050905080831115610f83578092505b5f8367ffffffffffffffff811115610f9e57610f9d611c67565b5b604051908082528060200260200182016040528015610fd757816020015b610fc4611397565b815260200190600190039081610fbc5790505b5090505f8483610fe79190611c34565b90505f5f90505b858110156111bd575f81836110039190611c01565b8154811061101457611013611c94565b5b905f5260205f2090600602016040518060c00160405290815f82015f9054906101000a900473ffffffffffffffffffffffffffffffffffffffff1673ffffffffffffffffffffffffffffffffffffffff1673ffffffffffffffffffffffffffffffffffffffff168152602001600182015f9054906101000a900473ffffffffffffffffffffffffffffffffffffffff1673ffffffffffffffffffffffffffffffffffffffff1673ffffffffffffffffffffffffffffffffffffffff16815260200160028201548152602001600382015481526020016004820180546110f890611cee565b80601f016020809104026020016040519081016040528092919081815260200182805461112490611cee565b801561116f5780601f106111465761010080835404028352916020019161116f565b820191905f5260205f20905b81548152906001019060200180831161115257829003601f168201915b50505050508152602001600582015f9054906101000a900460ff1615151515815250508382815181106111a5576111a4611c94565b5b60200260200101819052508080600101915050610fee565b50819350505050919050565b5f81815481106111d7575f80fd5b905f5260205f2090600602015f91509050805f015f9054906101000a900473ffffffffffffffffffffffffffffffffffffffff1690806001015f9054906101000a900473ffffffffffffffffffffffffffffffffffffffff169080600201549080600301549080600401805461124c90611cee565b80601f016020809104026020016040519081016040528092919081815260200182805461127890611cee565b80156112c35780601f1061129a576101008083540402835291602001916112c3565b820191905f5260205f20905b8154815290600101906020018083116112a657829003601f168201915b505050505090806005015f9054906101000a900460ff16905086565b60045f9054906101000a900473ffffffffffffffffffffffffffffffffffffffff1681565b606060015f8373ffffffffffffffffffffffffffffffffffffffff1673ffffffffffffffffffffffffffffffffffffffff1681526020019081526020015f2080548060200260200160405190810160405280929190818152602001828054801561138b57602002820191905f5260205f20905b815481526020019060010190808311611377575b50505050509050919050565b6040518060c001604052805f73ffffffffffffffffffffffffffffffffffffffff1681526020015f73ffffffffffffffffffffffffffffffffffffffff1681526020015f81526020015f8152602001606081526020015f151581525090565b5f5ffd5b5f5ffd5b5f73ffffffffffffffffffffffffffffffffffffffff82169050919050565b5f611427826113fe565b9050919050565b6114378161141d565b8114611441575f5ffd5b50565b5f813590506114528161142e565b92915050565b5f819050919050565b61146a81611458565b8114611474575f5ffd5b50565b5f8135905061148581611461565b92915050565b5f5f604083850312156114a1576114a06113f6565b5b5f6114ae85828601611444565b92505060206114bf85828601611477565b9150509250929050565b6114d281611458565b82525050565b5f6020820190506114eb5f8301846114c9565b92915050565b5f60208284031215611506576115056113f6565b5b5f61151384828501611444565b91505092915050565b5f8115159050919050565b6115308161151c565b82525050565b5f6020820190506115495f830184611527565b92915050565b5f5f60408385031215611565576115646113f6565b5b5f61157285828601611477565b925050602061158385828601611477565b9150509250929050565b5f81519050919050565b5f82825260208201905092915050565b5f819050602082019050919050565b6115bf8161141d565b82525050565b5f819050919050565b6115d7816115c5565b82525050565b6115e681611458565b82525050565b5f81519050919050565b5f82825260208201905092915050565b8281835e5f83830152505050565b5f601f19601f8301169050919050565b5f61162e826115ec565b61163881856115f6565b9350611648818560208601611606565b61165181611614565b840191505092915050565b6116658161151c565b82525050565b5f60c083015f8301516116805f8601826115b6565b50602083015161169360208601826115b6565b5060408301516116a660408601826115ce565b5060608301516116b960608601826115dd565b50608083015184820360808601526116d18282611624565b91505060a08301516116e660a086018261165c565b508091505092915050565b5f6116fc838361166b565b905092915050565b5f602082019050919050565b5f61171a8261158d565b6117248185611597565b935083602082028501611736856115a7565b805f5b85811015611771578484038952815161175285826116f1565b945061175d83611704565b925060208a01995050600181019050611739565b50829750879550505050505092915050565b5f6020820190508181035f83015261179b8184611710565b905092915050565b6117ac816115c5565b81146117b6575f5ffd5b50565b5f813590506117c7816117a3565b92915050565b5f5ffd5b5f5ffd5b5f5ffd5b5f5f83601f8401126117ee576117ed6117cd565b5b8235905067ffffffffffffffff81111561180b5761180a6117d1565b5b602083019150836001820283011115611827576118266117d5565b5b9250929050565b6118378161151c565b8114611841575f5ffd5b50565b5f813590506118528161182e565b92915050565b5f5f5f5f5f5f60a08789031215611872576118716113f6565b5b5f61187f89828a01611444565b965050602061189089828a01611444565b95505060406118a189828a016117b9565b945050606087013567ffffffffffffffff8111156118c2576118c16113fa565b5b6118ce89828a016117d9565b935093505060806118e189828a01611844565b9150509295509295509295565b5f60208284031215611903576119026113f6565b5b5f61191084828501611477565b91505092915050565b5f60c083015f83015161192e5f8601826115b6565b50602083015161194160208601826115b6565b50604083015161195460408601826115ce565b50606083015161196760608601826115dd565b506080830151848203608086015261197f8282611624565b91505060a083015161199460a086018261165c565b508091505092915050565b5f6020820190508181035f8301526119b78184611919565b905092915050565b5f81519050919050565b5f82825260208201905092915050565b5f819050602082019050919050565b5f6119f383836115dd565b60208301905092915050565b5f602082019050919050565b5f611a15826119bf565b611a1f81856119c9565b9350611a2a836119d9565b805f5b83811015611a5a578151611a4188826119e8565b9750611a4c836119ff565b925050600181019050611a2d565b5085935050505092915050565b5f6020820190508181035f830152611a7f8184611a0b565b905092915050565b611a908161141d565b82525050565b611a9f816115c5565b82525050565b5f82825260208201905092915050565b5f611abf826115ec565b611ac98185611aa5565b9350611ad9818560208601611606565b611ae281611614565b840191505092915050565b5f60c082019050611b005f830189611a87565b611b0d6020830188611a87565b611b1a6040830187611a96565b611b2760608301866114c9565b8181036080830152611b398185611ab5565b9050611b4860a0830184611527565b979650505050505050565b5f602082019050611b665f830184611a87565b92915050565b7f5374617274204944206f7574206f6620626f756e6473000000000000000000005f82015250565b5f611ba0601683611aa5565b9150611bab82611b6c565b602082019050919050565b5f6020820190508181035f830152611bcd81611b94565b9050919050565b7f4e487b71000000000000000000000000000000000000000000000000000000005f52601160045260245ffd5b5f611c0b82611458565b9150611c1683611458565b9250828201905080821115611c2e57611c2d611bd4565b5b92915050565b5f611c3e82611458565b9150611c4983611458565b9250828203905081811115611c6157611c60611bd4565b5b92915050565b7f4e487b71000000000000000000000000000000000000000000000000000000005f52604160045260245ffd5b7f4e487b71000000000000000000000000000000000000000000000000000000005f52603260045260245ffd5b7f4e487b71000000000000000000000000000000000000000000000000000000005f52602260045260245ffd5b5f6002820490506001821680611d0557607f821691505b602082108103611d1857611d17611cc1565b5b50919050565b5f819050815f5260205f209050919050565b5f6020601f8301049050919050565b5f82821b905092915050565b5f60088302611d7a7fffffffffffffffffffffffffffffffffffffffffffffffffffffffffffffffff82611d3f565b611d848683611d3f565b95508019841693508086168417925050509392505050565b5f819050919050565b5f611dbf611dba611db584611458565b611d9c565b611458565b9050919050565b5f819050919050565b611dd883611da5565b611dec611de482611dc6565b848454611d4b565b825550505050565b5f5f905090565b611e03611df4565b611e0e818484611dcf565b505050565b5b81811015611e3157611e265f82611dfb565b600181019050611e14565b5050565b601f821115611e7657611e4781611d1e565b611e5084611d30565b81016020851015611e5f578190505b611e73611e6b85611d30565b830182611e13565b50505b505050565b5f82821c905092915050565b5f611e965f1984600802611e7b565b1980831691505092915050565b5f611eae8383611e87565b9150826002028217905092915050565b611ec7826115ec565b67ffffffffffffffff811115611ee057611edf611c67565b5b611eea8254611cee565b611ef5828285611e35565b5f60209050601f831160018114611f26575f8415611f14578287015190505b611f1e8582611ea3565b865550611f85565b601f198416611f3486611d1e565b5f5b82811015611f5b57848901518255600182019150602085019450602081019050611f36565b86831015611f785784890151611f74601f891682611e87565b8355505b6001600288020188555050505b505050505050565b828183375f83830152505050565b5f611fa68385611aa5565b9350611fb3838584611f8d565b611fbc83611614565b840190509392505050565b5f608082019050611fda5f830188611a96565b8181036020830152611fed818688611f9b565b9050611ffc6040830185611527565b61200960608301846114c9565b9695505050505050565b7f496e76616c6964206c6f676765722061646472657373000000000000000000005f82015250565b5f612047601683611aa5565b915061205282612013565b602082019050919050565b5f6020820190508181035f8301526120748161203b565b905091905056fea26469706673582212201fb96f4b555a5649a95aeae766f7fe51de115c530b0ee45bb6008bf4f85dc4c664736f6c634300081e0033","linkReferences":{}},"methodIdentifiers":{"accessorHistory(address,uint256)":"154d69cb","admin()":"f851a440","authorizeLogger(address)":"bcfa3f30","authorizedLoggers(address)":"2801e43a","getAccessHistory(address)":"fcabb0fd","getAccessorHistory(address)":"a9297186","getAuditEntries(uint256,uint256)":"65b33fd1","getAuditEntry(uint256)":"a61ecc62","getLogsCount()":"cc9e300f","getRecentLogs(uint256)":"e52e64f9","isAuthorizedLogger(address)":"e1437f0f","logAccess(address,address,bytes32,string,bool)":"8003124f","logs(uint256)":"e79899bd","revokeLogger(address)":"b16b1e2d","userAccessHistory(address,uint256)":"71f36543"},"id":0}