{"abi":[{"type":"constructor","inputs":[{"name":"_consentManager","type":"address","internalType":"address"}],"stateMutability":"nonpayable"},{"type":"function","name":"accountReferences","inputs":[{"name":"","type":"address","internalType":"address"}],"outputs":[{"name":"","type":"string","internalType":"string"}],"stateMutability":"view"},{"type":"function","name":"auditLog","inputs":[],"outputs":[{"name":"","type":"address","internalType":"address"}],"stateMutability":"view"},{"type":"function","name":"consentManager","inputs":[],"outputs":[{"name":"","type":"address","internalType":"contract ConsentManager"}],"stateMutability":"view"},{"type":"function","name":"creditRecords","inputs":[{"name":"","type":"address","internalType":"address"}],"outputs":[{"name":"user","type":"address","internalType":"address"},{"name":"emailHash","type":"bytes32","internalType":"bytes32"},{"name":"creditTierHash","type":"bytes32","internalType":"bytes32"},{"name":"incomeBracketHash","type":"bytes32","internalType":"bytes32"},{"name":"debtRatioBracketHash","type":"bytes32","internalType":"bytes32"},{"name":"lastUpdated","type":"uint256","internalType":"uint256"}],"stateMutability":"view"},{"type":"function","name":"getAccountReference","inputs":[{"name":"user","type":"address","internalType":"address"}],"outputs":[{"name":"","type":"string","internalType":"string"}],"stateMutability":"view"},{"type":"function","name":"getCreditRecord","inputs":[{"name":"user","type":"address","internalType":"address"}],"outputs":[{"name":"","type":"tuple","internalType":"struct CreditRegistry.CreditRecord","components":[{"name":"user","type":"address","internalType":"address"},{"name":"emailHash","type":"bytes32","internalType":"bytes32"},{"name":"creditTierHash","type":"bytes32","internalType":"bytes32"},{"name":"incomeBracketHash","type":"bytes32","internalType":"bytes32"},{"name":"debtRatioBracketHash","type":"bytes32","internalType":"bytes32"},{"name":"lastUpdated","type":"uint256","internalType":"uint256"}]}],"stateMutability":"view"},{"type":"function","name":"hasCreditRecord","inputs":[{"name":"user","type":"address","internalType":"address"}],"outputs":[{"name":"","type":"bool","internalType":"bool"}],"stateMutability":"view"},{"type":"function","name":"registerCreditData","inputs":[{"name":"emailHash","type":"bytes32","internalType":"bytes32"},{"name":"creditTierHash","type":"bytes32","internalType":"bytes32"},{"name":"incomeBracketHash","type":"bytes32","internalType":"bytes32"},{"name":"debtRatioBracketHash","type":"bytes32","internalType":"bytes32"},{"name":"accountReference","type":"string","internalType":"string"}],"outputs":[],"stateMutability":"nonpayable"},{"type":"function","name":"setAuditLog","inputs":[{"name":"_auditLog","type":"address","internalType":"address"}],"outputs":[],"stateMutability":"nonpayable"},{"type":"function","name":"updateCreditData","inputs":[{"name":"emailHash","type":"bytes32","internalType":"bytes32"},{"name":"creditTierHash","type":"bytes32","internalType":"bytes32"},{"name":"incomeBracketHash","type":"bytes32","internalType":"bytes32"},{"name":"debtRatioBracketHash","type":"bytes32","internalType":"bytes32"}],"outputs":[],"stateMutability":"nonpayable"},{"type":"function","name":"verifyCreditData","inputs":[{"name":"borrower","type":"address","internalType":"address"},{"name":"lender","type":"address","internalType":"address"},{"name":"scope","type":"bytes32","internalType":"bytes32"}],"outputs":[{"name":"consentValid","type":"bool","internalType":"bool"},{"name":"creditTierHash","type":"bytes32","internalType":"bytes32"},{"name":"accountReference","type":"string","internalType":"string"}],"stateMutability":"nonpayable"},{"type":"event","name":"CreditDataQueried","inputs":[{"name":"user","type":"address","indexed":true,"internalType":"address"},{"name":"querier","type":"address","indexed":true,"internalType":"address"},{"name":"scope","type":"bytes32","indexed":false,"internalType":"bytes32"},{"name":"consentValid","type":"bool","indexed":false,"internalType":"bool"}],"anonymous":false},{"type":"event","name":"CreditDataRegistered","inputs":[{"name":"user","type":"address","indexed":true,"internalType":"address"},{"name":"timestamp","type":"uint256","indexed":false,"internalType":"uint256"}],"anonymous":false},{"type":"event","name":"CreditDataUpdated","inputs":[{"name":"user","type":"address","indexed":true,"internalType":"address"},{"name":"timestamp","type":"uint256","indexed":false,"internalType":"uint256"}],"anonymous":false},{"type":"error","name":"CreditRecordNotFound","inputs":[]},{"type":"error","name":"InvalidConsentManager","inputs":[]},{"type":"error","name":"NoConsentFound","inputs":[]},{"type":"error","name":"UnauthorizedUpdate","inputs":[]}],"bytecode":{"object":"0x608060405234801561000f575f5ffd5b50604051611dfe380380611dfe83398181016040528101906100319190610143565b5f73ffffffffffffffffffffffffffffffffffffffff168173ffffffffffffffffffffffffffffffffffffffff160361009f576040517f08c379a0000000000000000000000000000000000000000000000000000000008152600401610096906101c8565b60405180910390fd5b8060025f6101000a81548173ffffffffffffffffffffffffffffffffffffffff021916908373ffffffffffffffffffffffffffffffffffffffff160217905550506101e6565b5f5ffd5b5f73ffffffffffffffffffffffffffffffffffffffff82169050919050565b5f610112826100e9565b9050919050565b61012281610108565b811461012c575f5ffd5b50565b5f8151905061013d81610119565b92915050565b5f60208284031215610158576101576100e5565b5b5f6101658482850161012f565b91505092915050565b5f82825260208201905092915050565b7f496e76616c696420436f6e73656e744d616e61676572206164647265737300005f82015250565b5f6101b2601e8361016e565b91506101bd8261017e565b602082019050919050565b5f6020820190508181035f8301526101df816101a6565b9050919050565b611c0b806101f35f395ff3fe608060405234801561000f575f5ffd5b50600436106100a7575f3560e01c8063a58519171161006f578063a58519171461017c578063d5759f97146101ac578063d5ede150146101dc578063d9ee2b48146101f8578063dc01a72114610228578063e75bb26614610244576100a7565b80631e058ad4146100ab5780635a2d6ebd146100dd5780638be0ef3e146100fb5780639b25472c1461012b578063a3984e5914610147575b5f5ffd5b6100c560048036038101906100c09190611085565b610262565b6040516100d49392919061116e565b60405180910390f35b6100e5610532565b6040516100f291906111b9565b60405180910390f35b610115600480360381019061011091906111d2565b610557565b60405161012291906111fd565b60405180910390f35b6101456004803603810190610140919061121d565b6105f2565b005b610161600480360381019061015c91906111d2565b6107e9565b60405161017396959493929190611299565b60405180910390f35b610196600480360381019061019191906111d2565b61083f565b6040516101a3919061139e565b60405180910390f35b6101c660048036038101906101c191906111d2565b6109b0565b6040516101d391906111fd565b60405180910390f35b6101f660048036038101906101f191906111d2565b610a7d565b005b610212600480360381019061020d91906111d2565b610bbd565b60405161021f91906113b7565b60405180910390f35b610242600480360381019061023d9190611431565b610c52565b005b61024c610f85565b6040516102599190611522565b60405180910390f35b5f5f606060025f9054906101000a900473ffffffffffffffffffffffffffffffffffffffff1673ffffffffffffffffffffffffffffffffffffffff1663c31257758787876040518463ffffffff1660e01b81526004016102c49392919061153b565b6020604051808303815f875af11580156102e0573d5f5f3e3d5ffd5b505050506040513d601f19601f82011682018060405250810190610304919061159a565b92508473ffffffffffffffffffffffffffffffffffffffff168673ffffffffffffffffffffffffffffffffffffffff167f7732916e9cb9bea4ea5fd011fc8d5bab9d833394fe743cb2a177a7c70f6f81e786866040516103659291906115c5565b60405180910390a382610390575f5f5f1b60405180602001604052805f815250925092509250610529565b5f5f5f8873ffffffffffffffffffffffffffffffffffffffff1673ffffffffffffffffffffffffffffffffffffffff1681526020019081526020015f2090505f73ffffffffffffffffffffffffffffffffffffffff16815f015f9054906101000a900473ffffffffffffffffffffffffffffffffffffffff1673ffffffffffffffffffffffffffffffffffffffff1603610456576040517ff1fbf3f800000000000000000000000000000000000000000000000000000000815260040160405180910390fd5b8060020154925060015f8873ffffffffffffffffffffffffffffffffffffffff1673ffffffffffffffffffffffffffffffffffffffff1681526020019081526020015f2080546104a590611619565b80601f01602080910402602001604051908101604052809291908181526020018280546104d190611619565b801561051c5780601f106104f35761010080835404028352916020019161051c565b820191905f5260205f20905b8154815290600101906020018083116104ff57829003601f168201915b5050505050915060019350505b93509350939050565b60035f9054906101000a900473ffffffffffffffffffffffffffffffffffffffff1681565b6001602052805f5260405f205f91509050805461057390611619565b80601f016020809104026020016040519081016040528092919081815260200182805461059f90611619565b80156105ea5780601f106105c1576101008083540402835291602001916105ea565b820191905f5260205f20905b8154815290600101906020018083116105cd57829003601f168201915b505050505081565b5f5f5f3373ffffffffffffffffffffffffffffffffffffffff1673ffffffffffffffffffffffffffffffffffffffff1681526020019081526020015f2090505f73ffffffffffffffffffffffffffffffffffffffff16815f015f9054906101000a900473ffffffffffffffffffffffffffffffffffffffff1673ffffffffffffffffffffffffffffffffffffffff16036106b8576040517ff1fbf3f800000000000000000000000000000000000000000000000000000000815260040160405180910390fd5b3373ffffffffffffffffffffffffffffffffffffffff16815f015f9054906101000a900473ffffffffffffffffffffffffffffffffffffffff1673ffffffffffffffffffffffffffffffffffffffff161461073f576040517f4f1f214700000000000000000000000000000000000000000000000000000000815260040160405180910390fd5b5f5f1b8514610752578481600101819055505b5f5f1b8414610765578381600201819055505b5f5f1b8314610778578281600301819055505b5f5f1b821461078b578181600401819055505b4281600501819055503373ffffffffffffffffffffffffffffffffffffffff167f263eafb5abd7c8b48072bcdb1f77c0597457ab9032340a9fff5743e0419982b6426040516107da9190611649565b60405180910390a25050505050565b5f602052805f5260405f205f91509050805f015f9054906101000a900473ffffffffffffffffffffffffffffffffffffffff16908060010154908060020154908060030154908060040154908060050154905086565b610847610faa565b5f5f5f8473ffffffffffffffffffffffffffffffffffffffff1673ffffffffffffffffffffffffffffffffffffffff1681526020019081526020015f2090505f73ffffffffffffffffffffffffffffffffffffffff16815f015f9054906101000a900473ffffffffffffffffffffffffffffffffffffffff1673ffffffffffffffffffffffffffffffffffffffff1603610916576040517f08c379a000000000000000000000000000000000000000000000000000000000815260040161090d906116ac565b60405180910390fd5b806040518060c00160405290815f82015f9054906101000a900473ffffffffffffffffffffffffffffffffffffffff1673ffffffffffffffffffffffffffffffffffffffff1673ffffffffffffffffffffffffffffffffffffffff16815260200160018201548152602001600282015481526020016003820154815260200160048201548152602001600582015481525050915050919050565b606060015f8373ffffffffffffffffffffffffffffffffffffffff1673ffffffffffffffffffffffffffffffffffffffff1681526020019081526020015f2080546109fa90611619565b80601f0160208091040260200160405190810160405280929190818152602001828054610a2690611619565b8015610a715780601f10610a4857610100808354040283529160200191610a71565b820191905f5260205f20905b815481529060010190602001808311610a5457829003601f168201915b50505050509050919050565b5f73ffffffffffffffffffffffffffffffffffffffff168173ffffffffffffffffffffffffffffffffffffffff1603610aeb576040517f08c379a0000000000000000000000000000000000000000000000000000000008152600401610ae290611714565b60405180910390fd5b5f73ffffffffffffffffffffffffffffffffffffffff1660035f9054906101000a900473ffffffffffffffffffffffffffffffffffffffff1673ffffffffffffffffffffffffffffffffffffffff1614610b7a576040517f08c379a0000000000000000000000000000000000000000000000000000000008152600401610b719061177c565b60405180910390fd5b8060035f6101000a81548173ffffffffffffffffffffffffffffffffffffffff021916908373ffffffffffffffffffffffffffffffffffffffff16021790555050565b5f5f73ffffffffffffffffffffffffffffffffffffffff165f5f8473ffffffffffffffffffffffffffffffffffffffff1673ffffffffffffffffffffffffffffffffffffffff1681526020019081526020015f205f015f9054906101000a900473ffffffffffffffffffffffffffffffffffffffff1673ffffffffffffffffffffffffffffffffffffffff1614159050919050565b5f5f1b8603610c96576040517f08c379a0000000000000000000000000000000000000000000000000000000008152600401610c8d906117e4565b60405180910390fd5b5f5f1b8503610cda576040517f08c379a0000000000000000000000000000000000000000000000000000000008152600401610cd19061184c565b60405180910390fd5b5f8282905011610d1f576040517f08c379a0000000000000000000000000000000000000000000000000000000008152600401610d16906118b4565b60405180910390fd5b5f73ffffffffffffffffffffffffffffffffffffffff165f5f3373ffffffffffffffffffffffffffffffffffffffff1673ffffffffffffffffffffffffffffffffffffffff1681526020019081526020015f205f015f9054906101000a900473ffffffffffffffffffffffffffffffffffffffff1673ffffffffffffffffffffffffffffffffffffffff1614610dea576040517f08c379a0000000000000000000000000000000000000000000000000000000008152600401610de19061191c565b60405180910390fd5b6040518060c001604052803373ffffffffffffffffffffffffffffffffffffffff168152602001878152602001868152602001858152602001848152602001428152505f5f3373ffffffffffffffffffffffffffffffffffffffff1673ffffffffffffffffffffffffffffffffffffffff1681526020019081526020015f205f820151815f015f6101000a81548173ffffffffffffffffffffffffffffffffffffffff021916908373ffffffffffffffffffffffffffffffffffffffff1602179055506020820151816001015560408201518160020155606082015181600301556080820151816004015560a08201518160050155905050818160015f3373ffffffffffffffffffffffffffffffffffffffff1673ffffffffffffffffffffffffffffffffffffffff1681526020019081526020015f209182610f2e929190611b08565b503373ffffffffffffffffffffffffffffffffffffffff167f48039d6625665999a7e854c547c2f65c75479907f67d8f1f6aae49e60303070f42604051610f759190611649565b60405180910390a2505050505050565b60025f9054906101000a900473ffffffffffffffffffffffffffffffffffffffff1681565b6040518060c001604052805f73ffffffffffffffffffffffffffffffffffffffff1681526020015f81526020015f81526020015f81526020015f81526020015f81525090565b5f5ffd5b5f5ffd5b5f73ffffffffffffffffffffffffffffffffffffffff82169050919050565b5f61102182610ff8565b9050919050565b61103181611017565b811461103b575f5ffd5b50565b5f8135905061104c81611028565b92915050565b5f819050919050565b61106481611052565b811461106e575f5ffd5b50565b5f8135905061107f8161105b565b92915050565b5f5f5f6060848603121561109c5761109b610ff0565b5b5f6110a98682870161103e565b93505060206110ba8682870161103e565b92505060406110cb86828701611071565b9150509250925092565b5f8115159050919050565b6110e9816110d5565b82525050565b6110f881611052565b82525050565b5f81519050919050565b5f82825260208201905092915050565b8281835e5f83830152505050565b5f601f19601f8301169050919050565b5f611140826110fe565b61114a8185611108565b935061115a818560208601611118565b61116381611126565b840191505092915050565b5f6060820190506111815f8301866110e0565b61118e60208301856110ef565b81810360408301526111a08184611136565b9050949350505050565b6111b381611017565b82525050565b5f6020820190506111cc5f8301846111aa565b92915050565b5f602082840312156111e7576111e6610ff0565b5b5f6111f48482850161103e565b91505092915050565b5f6020820190508181035f8301526112158184611136565b905092915050565b5f5f5f5f6080858703121561123557611234610ff0565b5b5f61124287828801611071565b945050602061125387828801611071565b935050604061126487828801611071565b925050606061127587828801611071565b91505092959194509250565b5f819050919050565b61129381611281565b82525050565b5f60c0820190506112ac5f8301896111aa565b6112b960208301886110ef565b6112c660408301876110ef565b6112d360608301866110ef565b6112e060808301856110ef565b6112ed60a083018461128a565b979650505050505050565b61130181611017565b82525050565b61131081611052565b82525050565b61131f81611281565b82525050565b60c082015f8201516113395f8501826112f8565b50602082015161134c6020850182611307565b50604082015161135f6040850182611307565b5060608201516113726060850182611307565b5060808201516113856080850182611307565b5060a082015161139860a0850182611316565b50505050565b5f60c0820190506113b15f830184611325565b92915050565b5f6020820190506113ca5f8301846110e0565b92915050565b5f5ffd5b5f5ffd5b5f5ffd5b5f5f83601f8401126113f1576113f06113d0565b5b8235905067ffffffffffffffff81111561140e5761140d6113d4565b5b60208301915083600182028301111561142a576114296113d8565b5b9250929050565b5f5f5f5f5f5f60a0878903121561144b5761144a610ff0565b5b5f61145889828a01611071565b965050602061146989828a01611071565b955050604061147a89828a01611071565b945050606061148b89828a01611071565b935050608087013567ffffffffffffffff8111156114ac576114ab610ff4565b5b6114b889828a016113dc565b92509250509295509295509295565b5f819050919050565b5f6114ea6114e56114e084610ff8565b6114c7565b610ff8565b9050919050565b5f6114fb826114d0565b9050919050565b5f61150c826114f1565b9050919050565b61151c81611502565b82525050565b5f6020820190506115355f830184611513565b92915050565b5f60608201905061154e5f8301866111aa565b61155b60208301856111aa565b61156860408301846110ef565b949350505050565b611579816110d5565b8114611583575f5ffd5b50565b5f8151905061159481611570565b92915050565b5f602082840312156115af576115ae610ff0565b5b5f6115bc84828501611586565b91505092915050565b5f6040820190506115d85f8301856110ef565b6115e560208301846110e0565b9392505050565b7f4e487b71000000000000000000000000000000000000000000000000000000005f52602260045260245ffd5b5f600282049050600182168061163057607f821691505b602082108103611643576116426115ec565b5b50919050565b5f60208201905061165c5f83018461128a565b92915050565b7f437265646974207265636f7264206e6f7420666f756e640000000000000000005f82015250565b5f611696601783611108565b91506116a182611662565b602082019050919050565b5f6020820190508181035f8301526116c38161168a565b9050919050565b7f496e76616c69642041756469744c6f67206164647265737300000000000000005f82015250565b5f6116fe601883611108565b9150611709826116ca565b602082019050919050565b5f6020820190508181035f83015261172b816116f2565b9050919050565b7f41756469744c6f6720616c7265616479207365740000000000000000000000005f82015250565b5f611766601483611108565b915061177182611732565b602082019050919050565b5f6020820190508181035f8301526117938161175a565b9050919050565b7f496e76616c696420656d61696c206861736800000000000000000000000000005f82015250565b5f6117ce601283611108565b91506117d98261179a565b602082019050919050565b5f6020820190508181035f8301526117fb816117c2565b9050919050565b7f496e76616c6964206372656469742074696572206861736800000000000000005f82015250565b5f611836601883611108565b915061184182611802565b602082019050919050565b5f6020820190508181035f8301526118638161182a565b9050919050565b7f4163636f756e74207265666572656e63652072657175697265640000000000005f82015250565b5f61189e601a83611108565b91506118a98261186a565b602082019050919050565b5f6020820190508181035f8301526118cb81611892565b9050919050565b7f437265646974207265636f726420616c726561647920657869737473000000005f82015250565b5f611906601c83611108565b9150611911826118d2565b602082019050919050565b5f6020820190508181035f830152611933816118fa565b9050919050565b5f82905092915050565b7f4e487b71000000000000000000000000000000000000000000000000000000005f52604160045260245ffd5b5f819050815f5260205f209050919050565b5f6020601f8301049050919050565b5f82821b905092915050565b5f600883026119cd7fffffffffffffffffffffffffffffffffffffffffffffffffffffffffffffffff82611992565b6119d78683611992565b95508019841693508086168417925050509392505050565b5f611a09611a046119ff84611281565b6114c7565b611281565b9050919050565b5f819050919050565b611a22836119ef565b611a36611a2e82611a10565b84845461199e565b825550505050565b5f5f905090565b611a4d611a3e565b611a58818484611a19565b505050565b5b81811015611a7b57611a705f82611a45565b600181019050611a5e565b5050565b601f821115611ac057611a9181611971565b611a9a84611983565b81016020851015611aa9578190505b611abd611ab585611983565b830182611a5d565b50505b505050565b5f82821c905092915050565b5f611ae05f1984600802611ac5565b1980831691505092915050565b5f611af88383611ad1565b9150826002028217905092915050565b611b12838361193a565b67ffffffffffffffff811115611b2b57611b2a611944565b5b611b358254611619565b611b40828285611a7f565b5f601f831160018114611b6d575f8415611b5b578287013590505b611b658582611aed565b865550611bcc565b601f198416611b7b86611971565b5f5b82811015611ba257848901358255600182019150602085019450602081019050611b7d565b86831015611bbf5784890135611bbb601f891682611ad1565b8355505b6001600288020188555050505b5050505050505056fea26469706673582212208fed59633ae2b1d1fec2e472f6b7382626575efab4923d89246e6ba3f1ece24564736f6c634300081e0033","linkReferences":{}},"methodIdentifiers":{"accountReferences(address)":"8be0ef3e","auditLog()":"5a2d6ebd","consentManager()":"e75bb266","creditRecords(address)":"a3984e59","getAccountReference(address)":"d5759f97","getCreditRecord(address)":"a5851917","hasCreditRecord(address)":"d9ee2b48","registerCreditData(bytes32,bytes32,bytes32,bytes32,string)":"dc01a721","setAuditLog(address)":"d5ede150","updateCreditData(bytes32,bytes32,bytes32,bytes32)":"9b25472c","verifyCreditData(address,address,bytes32)":"1e058ad4"},"id":3}