{
  "_format": "hh3-artifact-1",
  "contractName": "CreditRegistry",
  "sourceName": "contracts/CreditRegistry.sol",
  "abi": [
    {
      "inputs": [
        {
          "internalType": "address",
          "name": "_consentManager",
          "type": "address"
        }
      ],
      "stateMutability": "nonpayable",
      "type": "constructor"
    },
    {
      "inputs": [],
      "name": "IdentityAttributesNotFound",
      "type": "error"
    },
    {
      "inputs": [],
      "name": "InvalidConsentManager",
      "type": "error"
    },
    {
      "inputs": [],
      "name": "UnauthorizedUpdate",
      "type": "error"
    },
    {
      "anonymous": false,
      "inputs": [
        {
          "indexed": true,
          "internalType": "address",
          "name": "userId",
          "type": "address"
        },
        {
          "indexed": false,
          "internalType": "uint256",
          "name": "unixTimestamp",
          "type": "uint256"
        }
      ],
      "name": "IdentityAttributesRegistered",
      "type": "event"
    },
    {
      "anonymous": false,
      "inputs": [
        {
          "indexed": true,
          "internalType": "address",
          "name": "user",
          "type": "address"
        },
        {
          "indexed": false,
          "internalType": "uint256",
          "name": "unixTimestamp",
          "type": "uint256"
        }
      ],
      "name": "IdentityAttributesUpdated",
      "type": "event"
    },
    {
      "inputs": [
        {
          "internalType": "address",
          "name": "",
          "type": "address"
        }
      ],
      "name": "accountReferenceHashes",
      "outputs": [
        {
          "internalType": "bytes32",
          "name": "",
          "type": "bytes32"
        }
      ],
      "stateMutability": "view",
      "type": "function"
    },
    {
      "inputs": [],
      "name": "auditLog",
      "outputs": [
        {
          "internalType": "contract AuditLog",
          "name": "",
          "type": "address"
        }
      ],
      "stateMutability": "view",
      "type": "function"
    },
    {
      "inputs": [],
      "name": "consentManager",
      "outputs": [
        {
          "internalType": "contract ConsentManager",
          "name": "",
          "type": "address"
        }
      ],
      "stateMutability": "view",
      "type": "function"
    },
    {
      "inputs": [
        {
          "internalType": "address",
          "name": "user",
          "type": "address"
        }
      ],
      "name": "getAccountReferenceHash",
      "outputs": [
        {
          "internalType": "bytes32",
          "name": "",
          "type": "bytes32"
        }
      ],
      "stateMutability": "view",
      "type": "function"
    },
    {
      "inputs": [
        {
          "internalType": "address",
          "name": "user",
          "type": "address"
        }
      ],
      "name": "getIdentityAttributes",
      "outputs": [
        {
          "components": [
            {
              "internalType": "address",
              "name": "userId",
              "type": "address"
            },
            {
              "internalType": "bytes32",
              "name": "emailHash",
              "type": "bytes32"
            },
            {
              "internalType": "string",
              "name": "creditTier",
              "type": "string"
            },
            {
              "internalType": "string",
              "name": "incomeBracket",
              "type": "string"
            },
            {
              "internalType": "string",
              "name": "debtRatioBracket",
              "type": "string"
            },
            {
              "internalType": "uint256",
              "name": "lastUpdated",
              "type": "uint256"
            }
          ],
          "internalType": "struct ICreditRegistry.IdentityAttributes",
          "name": "",
          "type": "tuple"
        }
      ],
      "stateMutability": "view",
      "type": "function"
    },
    {
      "inputs": [
        {
          "internalType": "address",
          "name": "user",
          "type": "address"
        }
      ],
      "name": "hasIdentityAttributes",
      "outputs": [
        {
          "internalType": "bool",
          "name": "",
          "type": "bool"
        }
      ],
      "stateMutability": "view",
      "type": "function"
    },
    {
      "inputs": [
        {
          "internalType": "address",
          "name": "",
          "type": "address"
        }
      ],
      "name": "identityAttributes",
      "outputs": [
        {
          "internalType": "address",
          "name": "userId",
          "type": "address"
        },
        {
          "internalType": "bytes32",
          "name": "emailHash",
          "type": "bytes32"
        },
        {
          "internalType": "string",
          "name": "creditTier",
          "type": "string"
        },
        {
          "internalType": "string",
          "name": "incomeBracket",
          "type": "string"
        },
        {
          "internalType": "string",
          "name": "debtRatioBracket",
          "type": "string"
        },
        {
          "internalType": "uint256",
          "name": "lastUpdated",
          "type": "uint256"
        }
      ],
      "stateMutability": "view",
      "type": "function"
    },
    {
      "inputs": [
        {
          "internalType": "bytes32",
          "name": "emailHash",
          "type": "bytes32"
        },
        {
          "internalType": "string",
          "name": "creditTier",
          "type": "string"
        },
        {
          "internalType": "string",
          "name": "incomeBracket",
          "type": "string"
        },
        {
          "internalType": "string",
          "name": "debtRatioBracket",
          "type": "string"
        },
        {
          "internalType": "bytes32",
          "name": "accountReferenceHash",
          "type": "bytes32"
        }
      ],
      "name": "registerIdentityAttributes",
      "outputs": [],
      "stateMutability": "nonpayable",
      "type": "function"
    },
    {
      "inputs": [
        {
          "internalType": "address",
          "name": "_auditLog",
          "type": "address"
        }
      ],
      "name": "setAuditLog",
      "outputs": [],
      "stateMutability": "nonpayable",
      "type": "function"
    },
    {
      "inputs": [
        {
          "internalType": "bytes32",
          "name": "emailHash",
          "type": "bytes32"
        },
        {
          "internalType": "string",
          "name": "creditTier",
          "type": "string"
        },
        {
          "internalType": "string",
          "name": "incomeBracket",
          "type": "string"
        },
        {
          "internalType": "string",
          "name": "debtRatioBracket",
          "type": "string"
        }
      ],
      "name": "updateIdentityAttributes",
      "outputs": [],
      "stateMutability": "nonpayable",
      "type": "function"
    }
  ],
  "bytecode": "0x6080604052348015600e575f5ffd5b50604051611238380380611238833981016040819052602b9160a8565b6001600160a01b03811660845760405162461bcd60e51b815260206004820152601e60248201527f496e76616c696420436f6e73656e744d616e6167657220616464726573730000604482015260640160405180910390fd5b600280546001600160a01b0319166001600160a01b039290921691909117905560d3565b5f6020828403121560b7575f5ffd5b81516001600160a01b038116811460cc575f5ffd5b9392505050565b611158806100e05f395ff3fe608060405234801561000f575f5ffd5b506004361061009b575f3560e01c80637d464a60116100635780637d464a6014610158578063bb7ed7b51461017d578063d5ede150146101b3578063e75bb266146101c6578063f3c76cb6146101d9575f5ffd5b80632309cbbb1461009f5780634438a95c146100c85780635a2d6ebd146100dd57806363ef6e32146101085780636eaf8a1814610145575b5f5ffd5b6100b26100ad366004610bd2565b6101f8565b6040516100bf9190610c2d565b60405180910390f35b6100db6100d6366004610cfb565b610490565b005b6003546100f0906001600160a01b031681565b6040516001600160a01b0390911681526020016100bf565b610135610116366004610bd2565b6001600160a01b039081165f9081526020819052604090205416151590565b60405190151581526020016100bf565b6100db610153366004610daa565b61080a565b61016b610166366004610bd2565b61098a565b6040516100bf96959493929190610e52565b6101a561018b366004610bd2565b6001600160a01b03165f9081526001602052604090205490565b6040519081526020016100bf565b6100db6101c1366004610bd2565b610b5a565b6002546100f0906001600160a01b031681565b6101a56101e7366004610bd2565b60016020525f908152604090205481565b6102376040518060c001604052805f6001600160a01b031681526020015f81526020016060815260200160608152602001606081526020015f81525090565b6001600160a01b038083165f90815260208190526040902080549091166102a55760405162461bcd60e51b815260206004820152601d60248201527f4964656e746974792061747472696275746573206e6f7420666f756e6400000060448201526064015b60405180910390fd5b6040805160c08101825282546001600160a01b03168152600183015460208201526002830180549192849290840191906102de90610eb2565b80601f016020809104026020016040519081016040528092919081815260200182805461030a90610eb2565b80156103555780601f1061032c57610100808354040283529160200191610355565b820191905f5260205f20905b81548152906001019060200180831161033857829003601f168201915b5050505050815260200160038201805461036e90610eb2565b80601f016020809104026020016040519081016040528092919081815260200182805461039a90610eb2565b80156103e55780601f106103bc576101008083540402835291602001916103e5565b820191905f5260205f20905b8154815290600101906020018083116103c857829003601f168201915b505050505081526020016004820180546103fe90610eb2565b80601f016020809104026020016040519081016040528092919081815260200182805461042a90610eb2565b80156104755780601f1061044c57610100808354040283529160200191610475565b820191905f5260205f20905b81548152906001019060200180831161045857829003601f168201915b50505050508152602001600582015481525050915050919050565b876104d25760405162461bcd60e51b8152602060048201526012602482015271092dcecc2d8d2c840cadac2d2d840d0c2e6d60731b604482015260640161029c565b856105155760405162461bcd60e51b815260206004820152601360248201527224b73b30b634b21031b932b234ba103a34b2b960691b604482015260640161029c565b806105625760405162461bcd60e51b815260206004820152601f60248201527f4163636f756e74207265666572656e6365206861736820726571756972656400604482015260640161029c565b335f908152602081905260409020546001600160a01b0316156105d65760405162461bcd60e51b815260206004820152602660248201527f4964656e74697479206174747269627574657320616c726561647920726567696044820152651cdd195c995960d21b606482015260840161029c565b6040518060c00160405280336001600160a01b0316815260200189815260200188888080601f0160208091040260200160405190810160405280939291908181526020018383808284375f92019190915250505090825250604080516020601f8901819004810282018101909252878152918101919088908890819084018382808284375f92019190915250505090825250604080516020601f8701819004810282018101909252858152918101919086908690819084018382808284375f92018290525093855250504260209384015250338152808252604090819020835181546001600160a01b0319166001600160a01b0390911617815591830151600183015582015160028201906106eb9082610f4a565b50606082015160038201906107009082610f4a565b50608082015160048201906107159082610f4a565b5060a09190910151600590910155335f9081526001602052604090208190556003546001600160a01b0316156107ca57600380546040805160a0810182523380825260208201525f818301524260608201526080810193909352516001621d658360e31b031981526001600160a01b039091169163ff14d3e89161079c9190600401611005565b5f604051808303815f87803b1580156107b3575f5ffd5b505af11580156107c5573d5f5f3e3d5ffd5b505050505b60405142815233907f8f6bcc59f47507a1aebcd239389c23c36454e6d0c1585b5b70cbfc372cec1eef906020015b60405180910390a25050505050505050565b335f90815260208190526040902080546001600160a01b031661084057604051632f69462360e11b815260040160405180910390fd5b80546001600160a01b0316331461086a57604051634f1f214760e01b815260040160405180910390fd5b871561087857600181018890555b851561088f576002810161088d878983611068565b505b83156108a657600381016108a4858783611068565b505b81156108bd57600481016108bb838583611068565b505b4260058201556003546001600160a01b031615610958576003546040805160a0810182523380825260208201525f8183015242606082015260046080820181905291516001621d658360e31b031981526001600160a01b039093169263ff14d3e89261092a929101611005565b5f604051808303815f87803b158015610941575f5ffd5b505af1158015610953573d5f5f3e3d5ffd5b505050505b60405142815233907ff2f9d18a7595fb73bef7f3aa296e0709811cf17bd302073c833e170474622ae6906020016107f8565b5f602081905290815260409020805460018201546002830180546001600160a01b039093169391926109bb90610eb2565b80601f01602080910402602001604051908101604052809291908181526020018280546109e790610eb2565b8015610a325780601f10610a0957610100808354040283529160200191610a32565b820191905f5260205f20905b815481529060010190602001808311610a1557829003601f168201915b505050505090806003018054610a4790610eb2565b80601f0160208091040260200160405190810160405280929190818152602001828054610a7390610eb2565b8015610abe5780601f10610a9557610100808354040283529160200191610abe565b820191905f5260205f20905b815481529060010190602001808311610aa157829003601f168201915b505050505090806004018054610ad390610eb2565b80601f0160208091040260200160405190810160405280929190818152602001828054610aff90610eb2565b8015610b4a5780601f10610b2157610100808354040283529160200191610b4a565b820191905f5260205f20905b815481529060010190602001808311610b2d57829003601f168201915b5050505050908060050154905086565b6001600160a01b038116610bb05760405162461bcd60e51b815260206004820152601860248201527f496e76616c69642041756469744c6f6720616464726573730000000000000000604482015260640161029c565b600380546001600160a01b0319166001600160a01b0392909216919091179055565b5f60208284031215610be2575f5ffd5b81356001600160a01b0381168114610bf8575f5ffd5b9392505050565b5f81518084528060208401602086015e5f602082860101526020601f19601f83011685010191505092915050565b6020815260018060a01b038251166020820152602082015160408201525f604083015160c06060840152610c6460e0840182610bff565b90506060840151601f19848303016080850152610c818282610bff565b9150506080840151601f198483030160a0850152610c9f8282610bff565b91505060a084015160c08401528091505092915050565b5f5f83601f840112610cc6575f5ffd5b50813567ffffffffffffffff811115610cdd575f5ffd5b602083019150836020828501011115610cf4575f5ffd5b9250929050565b5f5f5f5f5f5f5f5f60a0898b031215610d12575f5ffd5b88359750602089013567ffffffffffffffff811115610d2f575f5ffd5b610d3b8b828c01610cb6565b909850965050604089013567ffffffffffffffff811115610d5a575f5ffd5b610d668b828c01610cb6565b909650945050606089013567ffffffffffffffff811115610d85575f5ffd5b610d918b828c01610cb6565b999c989b50969995989497949560800135949350505050565b5f5f5f5f5f5f5f6080888a031215610dc0575f5ffd5b87359650602088013567ffffffffffffffff811115610ddd575f5ffd5b610de98a828b01610cb6565b909750955050604088013567ffffffffffffffff811115610e08575f5ffd5b610e148a828b01610cb6565b909550935050606088013567ffffffffffffffff811115610e33575f5ffd5b610e3f8a828b01610cb6565b989b979a50959850939692959293505050565b60018060a01b038716815285602082015260c060408201525f610e7860c0830187610bff565b8281036060840152610e8a8187610bff565b90508281036080840152610e9e8186610bff565b9150508260a0830152979650505050505050565b600181811c90821680610ec657607f821691505b602082108103610ee457634e487b7160e01b5f52602260045260245ffd5b50919050565b634e487b7160e01b5f52604160045260245ffd5b601f821115610f4557805f5260205f20601f840160051c81016020851015610f235750805b601f840160051c820191505b81811015610f42575f8155600101610f2f565b50505b505050565b815167ffffffffffffffff811115610f6457610f64610eea565b610f7881610f728454610eb2565b84610efe565b6020601f821160018114610faa575f8315610f935750848201515b5f19600385901b1c1916600184901b178455610f42565b5f84815260208120601f198516915b82811015610fd95787850151825560209485019460019092019101610fb9565b5084821015610ff657868401515f19600387901b60f8161c191681555b50505050600190811b01905550565b81516001600160a01b039081168252602080840151909116908201526040808301519082015260608083015190820152608082015160a08201906006811061105b57634e487b7160e01b5f52602160045260245ffd5b8060808401525092915050565b67ffffffffffffffff83111561108057611080610eea565b6110948361108e8354610eb2565b83610efe565b5f601f8411600181146110c5575f85156110ae5750838201355b5f19600387901b1c1916600186901b178355610f42565b5f83815260208120601f198716915b828110156110f457868501358255602094850194600190920191016110d4565b5086821015611110575f1960f88860031b161c19848701351681555b505060018560011b018355505050505056fea2646970667358221220c619b5d14db27dbd14b6193d4b7ecce4b9f737311c3dae3b4c7f7cdc5db9a47664736f6c634300081c0033",
  "linkReferences": {},
  "deployedLinkReferences": {},
  "immutableReferences": {},
  "inputSourceName": "project/contracts/CreditRegistry.sol",
  "buildInfoId": "solc-0_8_28-e9e1ce734e049f293821d9810e571525e8d92b23"
}