{
  "abi": [
    {
      "type": "function",
      "name": "borrowerConsents",
      "inputs": [
        {
          "name": "",
          "type": "address",
          "internalType": "address"
        },
        {
          "name": "",
          "type": "uint256",
          "internalType": "uint256"
        }
      ],
      "outputs": [
        {
          "name": "",
          "type": "bytes32",
          "internalType": "bytes32"
        }
      ],
      "stateMutability": "view"
    },
    {
      "type": "function",
      "name": "checkConsent",
      "inputs": [
        {
          "name": "borrower",
          "type": "address",
          "internalType": "address"
        },
        {
          "name": "scope",
          "type": "bytes32",
          "internalType": "bytes32"
        }
      ],
      "outputs": [
        {
          "name": "",
          "type": "bool",
          "internalType": "bool"
        }
      ],
      "stateMutability": "nonpayable"
    },
    {
      "type": "function",
      "name": "consents",
      "inputs": [
        {
          "name": "",
          "type": "bytes32",
          "internalType": "bytes32"
        }
      ],
      "outputs": [
        {
          "name": "borrower",
          "type": "address",
          "internalType": "address"
        },
        {
          "name": "lender",
          "type": "address",
          "internalType": "address"
        },
        {
          "name": "startBlockTime",
          "type": "uint256",
          "internalType": "uint256"
        },
        {
          "name": "expiryBlockTime",
          "type": "uint256",
          "internalType": "uint256"
        },
        {
          "name": "revoked",
          "type": "bool",
          "internalType": "bool"
        }
      ],
      "stateMutability": "view"
    },
    {
      "type": "function",
      "name": "getBorrowerConsents",
      "inputs": [
        {
          "name": "borrower",
          "type": "address",
          "internalType": "address"
        }
      ],
      "outputs": [
        {
          "name": "",
          "type": "bytes32[]",
          "internalType": "bytes32[]"
        }
      ],
      "stateMutability": "view"
    },
    {
      "type": "function",
      "name": "getConsentDetails",
      "inputs": [
        {
          "name": "consentId",
          "type": "bytes32",
          "internalType": "bytes32"
        }
      ],
      "outputs": [
        {
          "name": "borrower",
          "type": "address",
          "internalType": "address"
        },
        {
          "name": "lender",
          "type": "address",
          "internalType": "address"
        },
        {
          "name": "scopes",
          "type": "bytes32[]",
          "internalType": "bytes32[]"
        },
        {
          "name": "startBlockTime",
          "type": "uint256",
          "internalType": "uint256"
        },
        {
          "name": "expiryBlockTime",
          "type": "uint256",
          "internalType": "uint256"
        },
        {
          "name": "revoked",
          "type": "bool",
          "internalType": "bool"
        }
      ],
      "stateMutability": "view"
    },
    {
      "type": "function",
      "name": "grantConsent",
      "inputs": [
        {
          "name": "lender",
          "type": "address",
          "internalType": "address"
        },
        {
          "name": "scopes",
          "type": "bytes32[]",
          "internalType": "bytes32[]"
        },
        {
          "name": "durationSeconds",
          "type": "uint256",
          "internalType": "uint256"
        }
      ],
      "outputs": [
        {
          "name": "consentId",
          "type": "bytes32",
          "internalType": "bytes32"
        }
      ],
      "stateMutability": "nonpayable"
    },
    {
      "type": "function",
      "name": "isConsentValid",
      "inputs": [
        {
          "name": "consentId",
          "type": "bytes32",
          "internalType": "bytes32"
        }
      ],
      "outputs": [
        {
          "name": "",
          "type": "bool",
          "internalType": "bool"
        }
      ],
      "stateMutability": "view"
    },
    {
      "type": "function",
      "name": "revokeConsent",
      "inputs": [
        {
          "name": "lender",
          "type": "address",
          "internalType": "address"
        }
      ],
      "outputs": [],
      "stateMutability": "nonpayable"
    },
    {
      "type": "event",
      "name": "ConsentGranted",
      "inputs": [
        {
          "name": "consentId",
          "type": "bytes32",
          "indexed": true,
          "internalType": "bytes32"
        },
        {
          "name": "borrower",
          "type": "address",
          "indexed": true,
          "internalType": "address"
        },
        {
          "name": "lender",
          "type": "address",
          "indexed": true,
          "internalType": "address"
        },
        {
          "name": "scopes",
          "type": "bytes32[]",
          "indexed": false,
          "internalType": "bytes32[]"
        },
        {
          "name": "startBlockTime",
          "type": "uint256",
          "indexed": false,
          "internalType": "uint256"
        },
        {
          "name": "expiryBlockTime",
          "type": "uint256",
          "indexed": false,
          "internalType": "uint256"
        }
      ],
      "anonymous": false
    },
    {
      "type": "event",
      "name": "ConsentQueried",
      "inputs": [
        {
          "name": "consentId",
          "type": "bytes32",
          "indexed": true,
          "internalType": "bytes32"
        },
        {
          "name": "querier",
          "type": "address",
          "indexed": true,
          "internalType": "address"
        },
        {
          "name": "authorized",
          "type": "bool",
          "indexed": false,
          "internalType": "bool"
        }
      ],
      "anonymous": false
    },
    {
      "type": "event",
      "name": "ConsentRevoked",
      "inputs": [
        {
          "name": "consentId",
          "type": "bytes32",
          "indexed": true,
          "internalType": "bytes32"
        },
        {
          "name": "borrower",
          "type": "address",
          "indexed": true,
          "internalType": "address"
        },
        {
          "name": "lender",
          "type": "address",
          "indexed": true,
          "internalType": "address"
        }
      ],
      "anonymous": false
    },
    {
      "type": "error",
      "name": "ConsentAlreadyRevoked",
      "inputs": []
    },
    {
      "type": "error",
      "name": "ConsentExpired",
      "inputs": []
    },
    {
      "type": "error",
      "name": "ConsentNotFound",
      "inputs": []
    },
    {
      "type": "error",
      "name": "UnauthorizedRevocation",
      "inputs": []
    }
  ],
  "bytecode": {
    "object": "0x6080604052348015600e575f5ffd5b506116598061001c5f395ff3fe608060405234801561000f575f5ffd5b5060043610610086575f3560e01c8063b46e513f11610059578063b46e513f14610153578063c872662614610183578063d1a48627146101b3578063e3fe22d4146101cf57610086565b80631751d7051461008a57806318737dd3146100ba5780639fdc6bd8146100ef578063b3d8ccbd1461011f575b5f5ffd5b6100a4600480360381019061009f9190610e3c565b6101ff565b6040516100b19190610e94565b60405180910390f35b6100d460048036038101906100cf9190610ead565b61046c565b6040516100e696959493929190610fb6565b60405180910390f35b610109600480360381019061010491906110a7565b610553565b6040516101169190611127565b60405180910390f35b61013960048036038101906101349190610ead565b610969565b60405161014a959493929190611140565b60405180910390f35b61016d60048036038101906101689190611191565b6109e5565b60405161017a9190611127565b60405180910390f35b61019d60048036038101906101989190610ead565b610a0f565b6040516101aa9190610e94565b60405180910390f35b6101cd60048036038101906101c891906111cf565b610ac1565b005b6101e960048036038101906101e491906111cf565b610caf565b6040516101f691906111fa565b60405180910390f35b5f5f3390505f5f90505b5f5f8673ffffffffffffffffffffffffffffffffffffffff1673ffffffffffffffffffffffffffffffffffffffff1681526020019081526020015f208054905081101561040f575f5f5f8773ffffffffffffffffffffffffffffffffffffffff1673ffffffffffffffffffffffffffffffffffffffff1681526020019081526020015f20828154811061029f5761029e61121a565b5b905f5260205f20015490505f60015f8381526020019081526020015f2090508373ffffffffffffffffffffffffffffffffffffffff16816001015f9054906101000a900473ffffffffffffffffffffffffffffffffffffffff1673ffffffffffffffffffffffffffffffffffffffff161461031b575050610402565b806005015f9054906101000a900460ff168061033a5750806004015442115b15610346575050610402565b5f5f90505f5f90505b826002018054905081101561039957878360020182815481106103755761037461121a565b5b905f5260205f2001540361038c5760019150610399565b808060010191505061034f565b5080156103fe578473ffffffffffffffffffffffffffffffffffffffff16837f0e2aa5556a454e629029b975f197e594d2aadea355cdd0a91cad95a3df69baca60016040516103e89190610e94565b60405180910390a3600195505050505050610466565b5050505b8080600101915050610209565b508073ffffffffffffffffffffffffffffffffffffffff165f5f1b7f0e2aa5556a454e629029b975f197e594d2aadea355cdd0a91cad95a3df69baca5f6040516104599190610e94565b60405180910390a35f9150505b92915050565b5f5f60605f5f5f5f60015f8981526020019081526020015f209050805f015f9054906101000a900473ffffffffffffffffffffffffffffffffffffffff16816001015f9054906101000a900473ffffffffffffffffffffffffffffffffffffffff168260020183600301548460040154856005015f9054906101000a900460ff168380548060200260200160405190810160405280929190818152602001828054801561053657602002820191905f5260205f20905b815481526020019060010190808311610522575b505050505093509650965096509650965096505091939550919395565b5f5f73ffffffffffffffffffffffffffffffffffffffff168573ffffffffffffffffffffffffffffffffffffffff16036105c2576040517f08c379a00000000000000000000000000000000000000000000000000000000081526004016105b9906112a1565b60405180910390fd5b5f8484905011610607576040517f08c379a00000000000000000000000000000000000000000000000000000000081526004016105fe90611309565b60405180910390fd5b5f8211610649576040517f08c379a000000000000000000000000000000000000000000000000000000000815260040161064090611371565b60405180910390fd5b5f5f90505b848490508110156106c3575f5f1b85858381811061066f5761066e61121a565b5b90506020020135036106b6576040517f08c379a00000000000000000000000000000000000000000000000000000000081526004016106ad906113d9565b60405180910390fd5b808060010191505061064e565b505f4290505f83426106d59190611424565b90503387878742436040516020016106f29695949392919061152e565b6040516020818303038152906040528051906020012092506040518060c001604052803373ffffffffffffffffffffffffffffffffffffffff1681526020018873ffffffffffffffffffffffffffffffffffffffff1681526020018787808060200260200160405190810160405280939291908181526020018383602002808284375f81840152601f19601f8201169050808301925050505050505081526020018381526020018281526020015f151581525060015f8581526020019081526020015f205f820151815f015f6101000a81548173ffffffffffffffffffffffffffffffffffffffff021916908373ffffffffffffffffffffffffffffffffffffffff1602179055506020820151816001015f6101000a81548173ffffffffffffffffffffffffffffffffffffffff021916908373ffffffffffffffffffffffffffffffffffffffff160217905550604082015181600201908051906020019061085c929190610d41565b50606082015181600301556080820151816004015560a0820151816005015f6101000a81548160ff0219169083151502179055509050505f5f3373ffffffffffffffffffffffffffffffffffffffff1673ffffffffffffffffffffffffffffffffffffffff1681526020019081526020015f2083908060018154018082558091505060019003905f5260205f20015f90919091909150558673ffffffffffffffffffffffffffffffffffffffff163373ffffffffffffffffffffffffffffffffffffffff16847f8be153f42fc9508465d26d1986a77ad5199afce8cfb2aef0b0faf4b0e67468b28989878760405161095794939291906115e5565b60405180910390a45050949350505050565b6001602052805f5260405f205f91509050805f015f9054906101000a900473ffffffffffffffffffffffffffffffffffffffff1690806001015f9054906101000a900473ffffffffffffffffffffffffffffffffffffffff1690806003015490806004015490806005015f9054906101000a900460ff16905085565b5f602052815f5260405f2081815481106109fd575f80fd5b905f5260205f20015f91509150505481565b5f5f60015f8481526020019081526020015f2090505f73ffffffffffffffffffffffffffffffffffffffff16815f015f9054906101000a900473ffffffffffffffffffffffffffffffffffffffff1673ffffffffffffffffffffffffffffffffffffffff1603610a82575f915050610abc565b806005015f9054906101000a900460ff1615610aa1575f915050610abc565b8060040154421115610ab6575f915050610abc565b60019150505b919050565b5f73ffffffffffffffffffffffffffffffffffffffff168173ffffffffffffffffffffffffffffffffffffffff1603610b2f576040517f08c379a0000000000000000000000000000000000000000000000000000000008152600401610b26906112a1565b60405180910390fd5b5f5f5f3373ffffffffffffffffffffffffffffffffffffffff1673ffffffffffffffffffffffffffffffffffffffff1681526020019081526020015f2090505f5f90505b8180549050811015610caa575f828281548110610b9357610b9261121a565b5b905f5260205f20015490505f60015f8381526020019081526020015f2090508473ffffffffffffffffffffffffffffffffffffffff16816001015f9054906101000a900473ffffffffffffffffffffffffffffffffffffffff1673ffffffffffffffffffffffffffffffffffffffff16148015610c1e5750806005015f9054906101000a900460ff16155b15610c9b576001816005015f6101000a81548160ff0219169083151502179055508473ffffffffffffffffffffffffffffffffffffffff163373ffffffffffffffffffffffffffffffffffffffff16837f1fdab32a01e7a989c96da8ab7f4c7cd06957ff5bd2f53b2bdad498202a2fc9b760405160405180910390a45b50508080600101915050610b73565b505050565b60605f5f8373ffffffffffffffffffffffffffffffffffffffff1673ffffffffffffffffffffffffffffffffffffffff1681526020019081526020015f20805480602002602001604051908101604052809291908181526020018280548015610d3557602002820191905f5260205f20905b815481526020019060010190808311610d21575b50505050509050919050565b828054828255905f5260205f20908101928215610d7b579160200282015b82811115610d7a578251825591602001919060010190610d5f565b5b509050610d889190610d8c565b5090565b5b80821115610da3575f815f905550600101610d8d565b5090565b5f5ffd5b5f5ffd5b5f73ffffffffffffffffffffffffffffffffffffffff82169050919050565b5f610dd882610daf565b9050919050565b610de881610dce565b8114610df2575f5ffd5b50565b5f81359050610e0381610ddf565b92915050565b5f819050919050565b610e1b81610e09565b8114610e25575f5ffd5b50565b5f81359050610e3681610e12565b92915050565b5f5f60408385031215610e5257610e51610da7565b5b5f610e5f85828601610df5565b9250506020610e7085828601610e28565b9150509250929050565b5f8115159050919050565b610e8e81610e7a565b82525050565b5f602082019050610ea75f830184610e85565b92915050565b5f60208284031215610ec257610ec1610da7565b5b5f610ecf84828501610e28565b91505092915050565b610ee181610dce565b82525050565b5f81519050919050565b5f82825260208201905092915050565b5f819050602082019050919050565b610f1981610e09565b82525050565b5f610f2a8383610f10565b60208301905092915050565b5f602082019050919050565b5f610f4c82610ee7565b610f568185610ef1565b9350610f6183610f01565b805f5b83811015610f91578151610f788882610f1f565b9750610f8383610f36565b925050600181019050610f64565b5085935050505092915050565b5f819050919050565b610fb081610f9e565b82525050565b5f60c082019050610fc95f830189610ed8565b610fd66020830188610ed8565b8181036040830152610fe88187610f42565b9050610ff76060830186610fa7565b6110046080830185610fa7565b61101160a0830184610e85565b979650505050505050565b5f5ffd5b5f5ffd5b5f5ffd5b5f5f83601f84011261103d5761103c61101c565b5b8235905067ffffffffffffffff81111561105a57611059611020565b5b60208301915083602082028301111561107657611075611024565b5b9250929050565b61108681610f9e565b8114611090575f5ffd5b50565b5f813590506110a18161107d565b92915050565b5f5f5f5f606085870312156110bf576110be610da7565b5b5f6110cc87828801610df5565b945050602085013567ffffffffffffffff8111156110ed576110ec610dab565b5b6110f987828801611028565b9350935050604061110c87828801611093565b91505092959194509250565b61112181610e09565b82525050565b5f60208201905061113a5f830184611118565b92915050565b5f60a0820190506111535f830188610ed8565b6111606020830187610ed8565b61116d6040830186610fa7565b61117a6060830185610fa7565b6111876080830184610e85565b9695505050505050565b5f5f604083850312156111a7576111a6610da7565b5b5f6111b485828601610df5565b92505060206111c585828601611093565b9150509250929050565b5f602082840312156111e4576111e3610da7565b5b5f6111f184828501610df5565b91505092915050565b5f6020820190508181035f8301526112128184610f42565b905092915050565b7f4e487b71000000000000000000000000000000000000000000000000000000005f52603260045260245ffd5b5f82825260208201905092915050565b7f496e76616c6964206c656e6465722061646472657373000000000000000000005f82015250565b5f61128b601683611247565b915061129682611257565b602082019050919050565b5f6020820190508181035f8301526112b88161127f565b9050919050565b7f4174206c65617374206f6e652073636f706520726571756972656400000000005f82015250565b5f6112f3601b83611247565b91506112fe826112bf565b602082019050919050565b5f6020820190508181035f830152611320816112e7565b9050919050565b7f4475726174696f6e206d75737420626520706f736974697665000000000000005f82015250565b5f61135b601983611247565b915061136682611327565b602082019050919050565b5f6020820190508181035f8301526113888161134f565b9050919050565b7f496e76616c69642073636f7065000000000000000000000000000000000000005f82015250565b5f6113c3600d83611247565b91506113ce8261138f565b602082019050919050565b5f6020820190508181035f8301526113f0816113b7565b9050919050565b7f4e487b71000000000000000000000000000000000000000000000000000000005f52601160045260245ffd5b5f61142e82610f9e565b915061143983610f9e565b9250828201905080821115611451576114506113f7565b5b92915050565b5f8160601b9050919050565b5f61146d82611457565b9050919050565b5f61147e82611463565b9050919050565b61149661149182610dce565b611474565b82525050565b5f81905092915050565b5f5ffd5b82818337505050565b5f6114be838561149c565b93507f07ffffffffffffffffffffffffffffffffffffffffffffffffffffffffffffff8311156114f1576114f06114a6565b5b6020830292506115028385846114aa565b82840190509392505050565b5f819050919050565b61152861152382610f9e565b61150e565b82525050565b5f6115398289611485565b6014820191506115498288611485565b60148201915061155a8286886114b3565b91506115668285611517565b6020820191506115768284611517565b602082019150819050979650505050505050565b5f6115958385610ef1565b93507f07ffffffffffffffffffffffffffffffffffffffffffffffffffffffffffffff8311156115c8576115c76114a6565b5b6020830292506115d98385846114aa565b82840190509392505050565b5f6060820190508181035f8301526115fe81868861158a565b905061160d6020830185610fa7565b61161a6040830184610fa7565b9594505050505056fea26469706673582212202b4932645448ab76dd26868c9ae76b013f39006af2a11b1964ba441721cafa0664736f6c634300081e0033",
    "linkReferences": {}
  },
  "methodIdentifiers": {
    "borrowerConsents(address,uint256)": "b46e513f",
    "checkConsent(address,bytes32)": "1751d705",
    "consents(bytes32)": "b3d8ccbd",
    "getBorrowerConsents(address)": "e3fe22d4",
    "getConsentDetails(bytes32)": "18737dd3",
    "grantConsent(address,bytes32[],uint256)": "9fdc6bd8",
    "isConsentValid(bytes32)": "c8726626",
    "revokeAllConsentsaddress)": "d1a48627"
  },
  "id": 2
}